{
  "contractName": "HealthRecord",
  "abi": [
    {
      "constant": false,
      "inputs": [
        {
          "name": "_problems",
          "type": "string"
        },
        {
          "name": "_medications",
          "type": "string"
        },
        {
          "name": "_allergies",
          "type": "string"
        },
        {
          "name": "_weight_kg",
          "type": "uint256"
        },
        {
          "name": "_height_cm",
          "type": "uint256"
        }
      ],
      "name": "createRecord",
      "outputs": [],
      "payable": false,
      "stateMutability": "nonpayable",
      "type": "function"
    },
    {
      "constant": true,
      "inputs": [
        {
          "name": "_address",
          "type": "address"
        }
      ],
      "name": "getRecord",
      "outputs": [
        {
          "name": "_problems",
          "type": "string"
        },
        {
          "name": "_medications",
          "type": "string"
        },
        {
          "name": "_allergies",
          "type": "string"
        },
        {
          "name": "_weight_kg",
          "type": "uint256"
        },
        {
          "name": "_height_cm",
          "type": "uint256"
        }
      ],
      "payable": false,
      "stateMutability": "view",
      "type": "function"
    },
    {
      "constant": false,
      "inputs": [
        {
          "name": "_address",
          "type": "address"
        },
        {
          "name": "_problems",
          "type": "string"
        },
        {
          "name": "_medications",
          "type": "string"
        },
        {
          "name": "_allergies",
          "type": "string"
        },
        {
          "name": "_weight_kg",
          "type": "uint256"
        },
        {
          "name": "_height_cm",
          "type": "uint256"
        }
      ],
      "name": "updateRecord",
      "outputs": [],
      "payable": false,
      "stateMutability": "nonpayable",
      "type": "function"
    }
  ],
  "bytecode": "0x608060405234801561001057600080fd5b506109dd806100206000396000f300608060405260043610610057576000357c0100000000000000000000000000000000000000000000000000000000900463ffffffff168063106f323b1461005c578063617fba04146100db578063ea23b8831461027d575b600080fd5b34801561006857600080fd5b506100d9600480360381019080803590602001908201803590602001919091929391929390803590602001908201803590602001919091929391929390803590602001908201803590602001919091929391929390803590602001909291908035906020019092919050505061031c565b005b3480156100e757600080fd5b5061011c600480360381019080803573ffffffffffffffffffffffffffffffffffffffff1690602001909291905050506104fa565b60405180806020018060200180602001868152602001858152602001848103845289818151815260200191508051906020019080838360005b83811015610170578082015181840152602081019050610155565b50505050905090810190601f16801561019d5780820380516001836020036101000a031916815260200191505b50848103835288818151815260200191508051906020019080838360005b838110156101d65780820151818401526020810190506101bb565b50505050905090810190601f1680156102035780820380516001836020036101000a031916815260200191505b50848103825287818151815260200191508051906020019080838360005b8381101561023c578082015181840152602081019050610221565b50505050905090810190601f1680156102695780820380516001836020036101000a031916815260200191505b509850505050505050505060405180910390f35b34801561028957600080fd5b5061031a600480360381019080803573ffffffffffffffffffffffffffffffffffffffff1690602001909291908035906020019082018035906020019190919293919293908035906020019082018035906020019190919293919293908035906020019082018035906020019190919293919293908035906020019092919080359060200190929190505050610786565b005b60328888905011158015610334575060328686905011155b8015610344575060328484905011155b151561034f57600080fd5b60008211801561036157506101f48211155b801561036d5750600081115b801561037b575061012c8111155b151561038657600080fd5b60a06040519081016040528089898080601f016020809104026020016040519081016040528093929190818152602001838380828437820191505050505050815260200187878080601f016020809104026020016040519081016040528093929190818152602001838380828437820191505050505050815260200185858080601f0160208091040260200160405190810160405280939291908181526020018383808284378201915050505050508152602001838152602001828152506000803373ffffffffffffffffffffffffffffffffffffffff1673ffffffffffffffffffffffffffffffffffffffff168152602001908152602001600020600082015181600001908051906020019061049e92919061085c565b5060208201518160010190805190602001906104bb92919061085c565b5060408201518160020190805190602001906104d892919061085c565b5060608201518160030155608082015181600401559050505050505050505050565b606080606060008061050a6108dc565b6000808873ffffffffffffffffffffffffffffffffffffffff1673ffffffffffffffffffffffffffffffffffffffff16815260200190815260200160002060a06040519081016040529081600082018054600181600116156101000203166002900480601f0160208091040260200160405190810160405280929190818152602001828054600181600116156101000203166002900480156105ed5780601f106105c2576101008083540402835291602001916105ed565b820191906000526020600020905b8154815290600101906020018083116105d057829003601f168201915b50505050508152602001600182018054600181600116156101000203166002900480601f01602080910402602001604051908101604052809291908181526020018280546001816001161561010002031660029004801561068f5780601f106106645761010080835404028352916020019161068f565b820191906000526020600020905b81548152906001019060200180831161067257829003601f168201915b50505050508152602001600282018054600181600116156101000203166002900480601f0160208091040260200160405190810160405280929190818152602001828054600181600116156101000203166002900480156107315780601f1061070657610100808354040283529160200191610731565b820191906000526020600020905b81548152906001019060200180831161071457829003601f168201915b5050505050815260200160038201548152602001600482015481525050905080600001518160200151826040015183606001518460800151849450839350829250955095509550955095505091939590929450565b60008973ffffffffffffffffffffffffffffffffffffffff163373ffffffffffffffffffffffffffffffffffffffff161415156107c257600080fd5b6000808b73ffffffffffffffffffffffffffffffffffffffff1673ffffffffffffffffffffffffffffffffffffffff1681526020019081526020016000209050888882600001919061081592919061090c565b50868682600101919061082992919061090c565b50848482600201919061083d92919061090c565b5082816003018190555081816004018190555050505050505050505050565b828054600181600116156101000203166002900490600052602060002090601f016020900481019282601f1061089d57805160ff19168380011785556108cb565b828001600101855582156108cb579182015b828111156108ca5782518255916020019190600101906108af565b5b5090506108d8919061098c565b5090565b60a06040519081016040528060608152602001606081526020016060815260200160008152602001600081525090565b828054600181600116156101000203166002900490600052602060002090601f016020900481019282601f1061094d57803560ff191683800117855561097b565b8280016001018555821561097b579182015b8281111561097a57823582559160200191906001019061095f565b5b509050610988919061098c565b5090565b6109ae91905b808211156109aa576000816000905550600101610992565b5090565b905600a165627a7a7230582062e95ef7d3bd40f651efe0e9bb888806bdc99987bfa2d59e722cd53022aea6bb0029",
  "source": "pragma solidity ^0.4.18;\n\ncontract HealthRecord {\n\tstruct Record {\n\t\t//problems, medications, allergies, weight, height\n\t\tstring problems;\n\t\tstring medications;\n\t\tstring allergies;\n\t\tuint256 weight_kg;\n\t\tuint256 height_cm;\n\t}\n\n\tmapping (address => Record) records;\n\n\tfunction createRecord(string _problems, string _medications, string _allergies, uint256 _weight_kg, uint256 _height_cm) external {\n\t\trequire( (bytes(_problems).length <= 50) && (bytes(_medications).length <= 50) && (bytes(_allergies).length <= 50));\n\t\trequire( _weight_kg > 0 && _weight_kg <= 500 && _height_cm > 0 && _height_cm <= 300);\n\n\t\trecords[msg.sender] = Record(_problems, _medications, _allergies, _weight_kg, _height_cm);\n\t}\n\n\tfunction getRecord(address _address) view external returns (string _problems, string _medications, string _allergies, uint256 _weight_kg, uint256 _height_cm) {\n\t\tRecord memory rec = records[_address];\n\n\t\treturn (rec.problems, rec.medications, rec.allergies, rec.weight_kg, rec.height_cm);\n\t}\n\n\tfunction updateRecord(address _address, string _problems, string _medications, string _allergies, uint256 _weight_kg, uint256 _height_cm) external {\n\t\trequire (msg.sender == _address);\n\n\t\tRecord storage rec = records[_address];\n\t\trec.problems = _problems;\n\t\trec.medications = _medications;\n\t\trec.allergies = _allergies;\n\t\trec.weight_kg = _weight_kg;\n\t\trec.height_cm = _height_cm;\n\t}\n}",
  "sourcePath": "/Users/fjalcaraz/Desktop/SBC/sbc-notes/homework/hw1/health-record/contracts/HealthRecord.sol",
  "compiler": {
    "name": "solc",
    "version": "0.4.23+commit.124ca40d.Emscripten.clang"
  },
  "schemaVersion": "2.0.0",
  "updatedAt": "2018-05-16T14:25:49.022Z"
}