{
  "contractName": "HealthRecord",
  "abi": [
    {
      "constant": false,
      "inputs": [
        {
          "name": "_problems",
          "type": "string"
        },
        {
          "name": "_medications",
          "type": "string"
        },
        {
          "name": "_allergies",
          "type": "string"
        },
        {
          "name": "_weight_kg",
          "type": "uint16"
        },
        {
          "name": "_height_cm",
          "type": "uint16"
        }
      ],
      "name": "createRecord",
      "outputs": [],
      "payable": false,
      "stateMutability": "nonpayable",
      "type": "function"
    },
    {
      "constant": true,
      "inputs": [
        {
          "name": "_address",
          "type": "address"
        }
      ],
      "name": "getRecord",
      "outputs": [
        {
          "name": "_problems",
          "type": "string"
        },
        {
          "name": "_medications",
          "type": "string"
        },
        {
          "name": "_allergies",
          "type": "string"
        },
        {
          "name": "_weight_kg",
          "type": "uint16"
        },
        {
          "name": "_height_cm",
          "type": "uint16"
        }
      ],
      "payable": false,
      "stateMutability": "view",
      "type": "function"
    },
    {
      "constant": false,
      "inputs": [
        {
          "name": "_address",
          "type": "address"
        },
        {
          "name": "_problems",
          "type": "string"
        },
        {
          "name": "_medications",
          "type": "string"
        },
        {
          "name": "_allergies",
          "type": "string"
        },
        {
          "name": "_weight_kg",
          "type": "uint16"
        },
        {
          "name": "_height_cm",
          "type": "uint16"
        }
      ],
      "name": "updateRecord",
      "outputs": [],
      "payable": false,
      "stateMutability": "nonpayable",
      "type": "function"
    }
  ],
  "bytecode": "0x608060405234801561001057600080fd5b50610aa7806100206000396000f300608060405260043610610057576000357c0100000000000000000000000000000000000000000000000000000000900463ffffffff1680634c56b2101461005c578063617fba04146100e3578063dec0592a14610295575b600080fd5b34801561006857600080fd5b506100e1600480360381019080803590602001908201803590602001919091929391929390803590602001908201803590602001919091929391929390803590602001908201803590602001919091929391929390803561ffff169060200190929190803561ffff16906020019092919050505061033c565b005b3480156100ef57600080fd5b50610124600480360381019080803573ffffffffffffffffffffffffffffffffffffffff169060200190929190505050610564565b604051808060200180602001806020018661ffff1661ffff1681526020018561ffff1661ffff168152602001848103845289818151815260200191508051906020019080838360005b8381101561018857808201518184015260208101905061016d565b50505050905090810190601f1680156101b55780820380516001836020036101000a031916815260200191505b50848103835288818151815260200191508051906020019080838360005b838110156101ee5780820151818401526020810190506101d3565b50505050905090810190601f16801561021b5780820380516001836020036101000a031916815260200191505b50848103825287818151815260200191508051906020019080838360005b83811015610254578082015181840152602081019050610239565b50505050905090810190601f1680156102815780820380516001836020036101000a031916815260200191505b509850505050505050505060405180910390f35b3480156102a157600080fd5b5061033a600480360381019080803573ffffffffffffffffffffffffffffffffffffffff169060200190929190803590602001908201803590602001919091929391929390803590602001908201803590602001919091929391929390803590602001908201803590602001919091929391929390803561ffff169060200190929190803561ffff16906020019092919050505061081c565b005b60328888905011158015610354575060328686905011155b8015610364575060328484905011155b151561036f57600080fd5b60008261ffff1611801561038957506101f48261ffff1611155b8015610399575060008161ffff16115b80156103ab575061012c8161ffff1611155b15156103b657600080fd5b60a06040519081016040528089898080601f016020809104026020016040519081016040528093929190818152602001838380828437820191505050505050815260200187878080601f016020809104026020016040519081016040528093929190818152602001838380828437820191505050505050815260200185858080601f01602080910402602001604051908101604052809392919081815260200183838082843782019150505050505081526020018361ffff1681526020018261ffff168152506000803373ffffffffffffffffffffffffffffffffffffffff1673ffffffffffffffffffffffffffffffffffffffff16815260200190815260200160002060008201518160000190805190602001906104d692919061091e565b5060208201518160010190805190602001906104f392919061091e565b50604082015181600201908051906020019061051092919061091e565b5060608201518160030160006101000a81548161ffff021916908361ffff16021790555060808201518160030160026101000a81548161ffff021916908361ffff1602179055509050505050505050505050565b606080606060008061057461099e565b6000808873ffffffffffffffffffffffffffffffffffffffff1673ffffffffffffffffffffffffffffffffffffffff16815260200190815260200160002060a06040519081016040529081600082018054600181600116156101000203166002900480601f0160208091040260200160405190810160405280929190818152602001828054600181600116156101000203166002900480156106575780601f1061062c57610100808354040283529160200191610657565b820191906000526020600020905b81548152906001019060200180831161063a57829003601f168201915b50505050508152602001600182018054600181600116156101000203166002900480601f0160208091040260200160405190810160405280929190818152602001828054600181600116156101000203166002900480156106f95780601f106106ce576101008083540402835291602001916106f9565b820191906000526020600020905b8154815290600101906020018083116106dc57829003601f168201915b50505050508152602001600282018054600181600116156101000203166002900480601f01602080910402602001604051908101604052809291908181526020018280546001816001161561010002031660029004801561079b5780601f106107705761010080835404028352916020019161079b565b820191906000526020600020905b81548152906001019060200180831161077e57829003601f168201915b505050505081526020016003820160009054906101000a900461ffff1661ffff1661ffff1681526020016003820160029054906101000a900461ffff1661ffff1661ffff1681525050905080600001518160200151826040015183606001518460800151849450839350829250955095509550955095505091939590929450565b60008973ffffffffffffffffffffffffffffffffffffffff163373ffffffffffffffffffffffffffffffffffffffff1614151561085857600080fd5b6000808b73ffffffffffffffffffffffffffffffffffffffff1673ffffffffffffffffffffffffffffffffffffffff168152602001908152602001600020905088888260000191906108ab9291906109d6565b5086868260010191906108bf9291906109d6565b5084848260020191906108d39291906109d6565b50828160030160006101000a81548161ffff021916908361ffff160217905550818160030160026101000a81548161ffff021916908361ffff16021790555050505050505050505050565b828054600181600116156101000203166002900490600052602060002090601f016020900481019282601f1061095f57805160ff191683800117855561098d565b8280016001018555821561098d579182015b8281111561098c578251825591602001919060010190610971565b5b50905061099a9190610a56565b5090565b60a060405190810160405280606081526020016060815260200160608152602001600061ffff168152602001600061ffff1681525090565b828054600181600116156101000203166002900490600052602060002090601f016020900481019282601f10610a1757803560ff1916838001178555610a45565b82800160010185558215610a45579182015b82811115610a44578235825591602001919060010190610a29565b5b509050610a529190610a56565b5090565b610a7891905b80821115610a74576000816000905550600101610a5c565b5090565b905600a165627a7a72305820cbd4c1efdb8f819ddafca0443d2852d01d921eb1cbd749b604a9bd64d07cd06b0029",
  "source": "pragma solidity ^0.4.18;\n\ncontract HealthRecord {\n\tstruct Record {\n\t\t//problems, medications, allergies, weight, height\n\t\tstring problems;\n\t\tstring medications;\n\t\tstring allergies;\n\t\tuint16 weight_kg;\n\t\tuint16 height_cm;\n\t}\n\n\tmapping (address => Record) records;\n\n\tfunction createRecord(string _problems, string _medications, string _allergies, uint16 _weight_kg, uint16 _height_cm) external {\n\t\trequire( (bytes(_problems).length <= 50) && (bytes(_medications).length <= 50) && (bytes(_allergies).length <= 50));\n\t\trequire( _weight_kg > 0 && _weight_kg <= 500 && _height_cm > 0 && _height_cm <= 300);\n\n\t\trecords[msg.sender] = Record(_problems, _medications, _allergies, _weight_kg, _height_cm);\n\t}\n\n\tfunction getRecord(address _address) view external returns (string _problems, string _medications, string _allergies, uint16 _weight_kg, uint16 _height_cm) {\n\t\tRecord memory rec = records[_address];\n\n\t\treturn (rec.problems, rec.medications, rec.allergies, rec.weight_kg, rec.height_cm);\n\t}\n\n\tfunction updateRecord(address _address, string _problems, string _medications, string _allergies, uint16 _weight_kg, uint16 _height_cm) external {\n\t\trequire (msg.sender == _address);\n\n\t\tRecord storage rec = records[_address];\n\t\trec.problems = _problems;\n\t\trec.medications = _medications;\n\t\trec.allergies = _allergies;\n\t\trec.weight_kg = _weight_kg;\n\t\trec.height_cm = _height_cm;\n\t}\n}",
  "sourcePath": "/Users/fjalcaraz/Desktop/SBC/sbc-notes/homework/hw1/health-record/contracts/HealthRecord.sol",
  "compiler": {
    "name": "solc",
    "version": "0.4.23+commit.124ca40d.Emscripten.clang"
  },
  "schemaVersion": "2.0.0",
  "updatedAt": "2018-05-16T14:43:36.954Z"
}